:100000000C945C000C9479000C9479000C941D0203
:100010000C9479000C9479000C9479000C9479007C
:100020000C9479000C9479000C9479000C9479006C
:100030000C9479000C9479000C9479000C9479005C
:100040000C94D3010C9479000C9479000C947900F1
:100050000C9479000C9479000C9479000C9479003C
:100060000C9479000C947900000000002400270013
:100070002A0000000000250028002B0004040404CE
:100080000404040402020202020203030303030342
:10009000010204081020408001020408102001021F
:1000A00004081020000000080002010000030407FB
:1000B000000000000000000011241FBECFEFD8E0B8
:1000C000DEBFCDBF11E0A0E0B1E0EAE4F6E002C09F
:1000D00005900D92A630B107D9F721E0A6E0B1E076
:1000E00001C01D92A431B207E1F70E942F020C94C7
:1000F00023030C94000090E0FC01EC55FF4F249189
:10010000FC01E057FF4F3491FC01E458FF4FE491AC
:10011000EE23C9F0222339F0233001F1A8F4213075
:1001200019F1223029F1F0E0EE0FFF1FEE58FF4FDA
:10013000A591B4918FB7F894EC91611126C03095D8
:100140003E233C938FBF08952730A9F02830C9F093
:10015000243049F7809180008F7D03C0809180001A
:100160008F7780938000DFCF84B58F7784BDDBCF1E
:1001700084B58F7DFBCF8091B0008F778093B000E6
:10018000D2CF8091B0008F7DF9CF3E2BDACFCF93C5
:10019000DF9390E0FC01E057FF4F249184589F4F7C
:1001A000FC0184918823C9F090E0880F991FFC011D
:1001B000E859FF4FA591B491FC01EE58FF4FC5914E
:1001C000D49161110DC09FB7F8948C912095822332
:1001D0008C938881282328839FBFDF91CF91089536
:1001E000623051F49FB7F8943C91822F809583231D
:1001F0008C93E8812E2BEFCF8FB7F894EC912E2BB8
:100200002C938FBFEACF3FB7F89480911001909163
:100210001101A0911201B091130126B5A89B05C050
:100220002F3F19F00196A11DB11D3FBFBA2FA92F75
:10023000982F8827BC01CD01620F711D811D911D72
:1002400042E0660F771F881F991F4A95D1F70895DE
:100250008F929F92AF92BF92CF92DF92EF92FF92D6
:100260004B015C010E9403016B017C010E940301B0
:100270006C197D098E099F09683E734081059105BF
:10028000A8F321E0821A9108A108B10888EEC80EEF
:1002900083E0D81EE11CF11C81149104A104B10477
:1002A00029F7FF90EF90DF90CF90BF90AF909F9095
:1002B0008F9008950F931F93CF93DF93EC0110E07D
:1002C00000E0C017D107BCF060E08EE00E947B0028
:1002D0006EE170E080E090E00E94280161E08EE035
:1002E0000E947B006AEF70E080E090E00E942801AD
:1002F0000F5F1F4FE6CF68EC70E080E090E00E9457
:100300002801CF3FDC0791F480910601909107010D
:10031000892B89F481E090E0909307018093060196
:1003200090E080E00E940D03C82FD0E0C830D105D6
:1003300014F0D0E0C0E061E0C0FF60E088E00E941F
:100340007B0061E0C1FF60E089E00E947B0061E02A
:10035000C2FF60E08AE00E947B0090E080E00E94A3
:100360000D038C171D0629F06C2F90E080E00E9491
:10037000150360E08BE00E947B0061E08BE00E944F
:10038000C70062E370E080E090E00E94280161E035
:100390008BE00E947B0060E08BE0DF91CF911F91AA
:1003A0000F910C94C7001F920F920FB60F92112459
:1003B0002F933F938F939F93AF93BF9380910C01A3
:1003C00090910D01A0910E01B0910F0130910B01A0
:1003D00023E0230F2D3758F50196A11DB11D209361
:1003E0000B0180930C0190930D01A0930E01B0932B
:1003F0000F018091100190911101A0911201B09113
:1004000013010196A11DB11D80931001909311015C
:10041000A0931201B0931301BF91AF919F918F915F
:100420003F912F910F900FBE0F901F90189526E8C7
:10043000230F0296A11DB11DD2CF1F920F920FB6AE
:100440000F9211248F9383B185FB882780F98093C5
:100450000A018F910F900FBE0F901F9018957894FE
:1004600084B5826084BD84B5816084BD85B58260B9
:1004700085BD85B5816085BD80916E00816080936A
:100480006E001092810080918100826080938100D3
:1004900080918100816080938100809180008160E3
:1004A000809380008091B10084608093B10080913E
:1004B000B00081608093B00080917A008460809366
:1004C0007A0080917A00826080937A0080917A002D
:1004D000816080937A0080917A00806880937A00AE
:1004E0001092C1001AB860E08DE00E94C70061E080
:1004F00088E00E94C70061E089E00E94C70061E0D7
:100500008AE00E94C70060E08DE00E94C70060E0C2
:100510008BE00E94C70061E08EE00E94C70062E0AD
:1005200082E10E94C70062E083E10E94C70090E080
:1005300080E00E940D0390E0883091056CF0D0E0DF
:10054000C0E060E0CE010E9415032196C11584E051
:10055000D807B9F790E080E00E945A0180916B00C3
:10056000806280936B00D89A80916800816080934C
:100570006800C0E0D0E001E010E080910A0188232B
:10058000C1F129B110920A018091080190910901ED
:10059000FC01E050FF4F3081231328C00196909357
:1005A0000901809308010697E1F480910A018823EC
:1005B000E1F389B190ED980F993068F4209106012C
:1005C000309107018153990B232B21F110920901DE
:1005D0001092080106C08D34C9F7109309010093E9
:1005E0000801209751F20E940000C7CF2D3471F707
:1005F000F4CF86B184FD03C090E080E00BC085FDA0
:10060000F0CF90E080E00E940D0390E001968830EA
:10061000910594F70E945A01E4CFF999FECF92BD5B
:1006200081BDF89A992780B50895262FF999FECFB4
:100630001FBA92BD81BD20BD0FB6F894FA9AF99AFF
:0A0640000FBE01960895F894FFCF55
:06064A004D4F524E5240DC
:00000001FF
