:100000000C945C000C9479000C9479000C94C5005D
:100010000C9479000C9479000C9479000C9479007C
:100020000C9479000C9479000C9479000C9479006C
:100030000C9479000C9479000C9479000C9479005C
:100040000C94FE010C9479000C9479000C947900C6
:100050000C9479000C9479000C9479000C9479003C
:100060000C9479000C947900000000080002010053
:100070000003040700000000000000000102040863
:100080001020408001020408102001020408102002
:10009000040404040404040402020202020203032E
:1000A0000303030300000000250028002B000000CC
:1000B0000000240027002A0011241FBECFEFD8E043
:1000C000DEBFCDBF11E0A0E0B1E0EAE1F7E002C0A1
:1000D00005900D92A431B107D9F721E0A4E1B1E078
:1000E00001C01D92A032B207E1F70E94EF010C940B
:1000F0008B030C940000EDE6F0E0883050F0EBE666
:10010000F0E08E3030F0ECE6F0E0863110F0F0E018
:10011000E0E09081282F30E0883010F541E050E099
:1001200060E070E0082E04C0440F551F661F771F63
:100130000A94D2F7492B40839BB3883020F121E009
:100140008E3008F420E081E001C0880F2A95EAF79C
:10015000982B9BBB90916800892B80936800089531
:100160008E3070F42850310941E050E060E070E0DA
:1001700004C0440F551F661F771F2A95D2F7DACFA8
:100180002E503109F1CF84E0E3CF1F920F920FB6CA
:100190000F9211248F9383B185FB882780F9809378
:1001A00014018F910F900FBE0F901F901895CF9351
:1001B000DF93D0E0C0E060E0CE010E947D03219695
:1001C000C11584E0D807B9F7DF91CF910895CF9397
:1001D000DF93CAE0D1E060E088810E94460361E0DD
:1001E00088810E940A0362E370E080E090E00E9450
:1001F0006D0261E088810E94460360E08881DF91A2
:10020000CF910C940A030F931F93CF93DF93EC01CC
:1002100010E000E0C017D107CCF061E0809106014A
:100220000E9446036EE170E080E090E00E946D0263
:1002300060E0809106010E9446036AEF70E080E072
:1002400090E00E946D020F5F1F4FE4CF68EC70E0FA
:1002500080E090E00E946D0280910C0190910D0170
:10026000C817D90714F0D0E0C0E061E0C0FF60E03B
:1002700088E00E94460361E0C1FF60E089E00E94DF
:10028000460361E0C2FF60E08AE00E94460390E01E
:1002900080E00E9475038C171D0629F06C2F90E0FA
:1002A00080E00E947D03DF91CF911F910F910C940C
:1002B000E7001AB860E08DE00E940A0361E088E080
:1002C0000E940A0361E089E00E940A0361E08AE07B
:1002D0000E940A0360E0809108010E940A0360E026
:1002E00080910A010E940A0361E0809106010E9448
:1002F0000A0362E0809104010E940A0362E0809197
:1003000002010E940A0390E080E00E94750390E0E1
:1003100020910C0130910D018217930724F00E9467
:10032000D70090E080E00E940301809108010C94C6
:100330007B00809114018823D1F129B1109214011E
:100340008091150190911601FC01E25FFE4F308112
:10035000231324C0019690931601809315012091D8
:1003600000013091010182179307B9F580911401C2
:100370008823E1F389B19FEC980F943020F48153E6
:10038000990B0C94030190910E0189130BC081E02D
:1003900090E09093160180931501089580910E01CD
:1003A0002817A9F31092160110921501089586B12D
:1003B00084FD03C090E080E0E4CF85FD0EC090E0B6
:1003C00080E00E94750390E0019620910C0130912D
:1003D0000D0182179307ACF2EDCF089508950E94A6
:1003E000A6020E94EE010E945901C0E0D0E00E94E6
:1003F00099012097E1F30E940000F9CF1F920F921C
:100400000FB60F9211242F933F938F939F93AF9327
:10041000BF938091180190911901A0911A01B09198
:100420001B013091170123E0230F2D3758F501965A
:10043000A11DB11D209317018093180190931901FC
:10044000A0931A01B0931B0180911C0190911D0192
:10045000A0911E01B0911F010196A11DB11D8093B5
:100460001C0190931D01A0931E01B0931F01BF9129
:10047000AF919F918F913F912F910F900FBE0F9051
:100480001F90189526E8230F0296A11DB11DD2CF0B
:100490003FB7F89480911C0190911D01A0911E011D
:1004A000B0911F0126B5A89B05C02F3F19F00196FA
:1004B000A11DB11D3FBFBA2FA92F982F8827BC01BE
:1004C000CD01620F711D811D911D42E0660F771FE6
:1004D000881F991F4A95D1F708958F929F92AF92E6
:1004E000BF92CF92DF92EF92FF926B017C010E944C
:1004F00048024B015C01C114D104E104F104E9F0AC
:100500000E9474030E944802681979098A099B09AC
:10051000683E73408105910570F321E0C21AD1084D
:10052000E108F10888EE880E83E0981EA11CB11C3A
:10053000C114D104E104F10429F7FF90EF90DF909A
:10054000CF90BF90AF909F908F900895789484B58E
:10055000826084BD84B5816084BD85B5826085BDBF
:1005600085B5816085BDEEE6F0E0808181608083A5
:10057000E1E8F0E010828081826080838081816088
:100580008083E0E8F0E0808181608083E1EBF0E04F
:10059000808184608083E0EBF0E0808181608083F3
:1005A000EAE7F0E0808184608083808182608083DC
:1005B0008081816080838081806880831092C10007
:1005C0000895833081F028F4813099F08230A9F0C9
:1005D00008958730A9F08830C9F08430B1F4809153
:1005E00080008F7D03C0809180008F778093800092
:1005F000089584B58F7784BD089584B58F7DFBCF32
:100600008091B0008F778093B00008958091B00002
:100610008F7DF9CFCF93DF9390E0FC01E458FF4F3B
:10062000249180579F4FFC0184918823C9F090E06A
:10063000880F991FFC01E255FF4FA591B491FC0171
:10064000EC55FF4FC591D49161110DC09FB7F8943F
:100650008C91209582238C938881282328839FBFA7
:10066000DF91CF910895623051F49FB7F8943C9197
:10067000822F809583238C93E8812E2BEFCF8FB729
:10068000F894EC912E2B2C938FBFEACF1F93CF932E
:10069000DF93282F30E0F901E859FF4F8491F901E9
:1006A000E458FF4FD491F901E057FF4FC491CC2398
:1006B000A9F0162F81110E94E102EC2FF0E0EE0F5D
:1006C000FF1FEC55FF4FA591B4918FB7F894EC91B3
:1006D000111108C0D095DE23DC938FBFDF91CF913D
:1006E0001F910895DE2BF8CF0895F999FECF92BDA2
:1006F00081BDF89A992780B50895262FF999FECFE4
:100700001FBA92BD81BD20BD0FB6F894FA9AF99A2E
:0A0710000FBE01960895F894FFCF84
:10071A000600130012000E000D000B0008004D4FDA
:04072A00524E524099
:00000001FF
