:1000000041C05BC05AC0CDC158C057C056C055C0D2
:1000100054C053C052C051C050C04FC04EC04DC05C
:100020007AC14BC04AC049C048C047C046C045C05D
:1000300044C043C000000000240027002A00000044
:100040000000250028002B00040404040404040418
:100050000202020202020303030303030102040873
:100060001020408001020408102001020408102022
:100070000000000800020100000304070000000067
:100080000000000011241FBECFEFD2E0DEBFCDBFC5
:1000900011E0A0E0B1E0E4EBF5E002C005900D92C4
:1000A000A630B107D9F721E0A6E0B1E001C01D926A
:1000B000A231B207E1F787D17BC2A2CF90E0FC0169
:1000C000E059FF4F2491FC01E45AFF4F3491FC01A9
:1000D000E85BFF4FE491EE23C9F0222339F023308F
:1000E00001F1A8F4213019F1223029F1F0E0EE0FEE
:1000F000FF1FE25CFF4FA591B4918FB7F894EC918C
:10010000611126C030953E233C938FBF0895273060
:10011000A9F02830C9F0243049F7809180008F7D04
:1001200003C0809180008F7780938000DFCF84B5FB
:100130008F7784BDDBCF84B58F7DFBCF8091B000FE
:100140008F778093B000D2CF8091B0008F7DF9CFB0
:100150003E2BDACFCF93DF9390E0FC01E45AFF4FC0
:100160002491885B9F4FFC0184918823C9F090E023
:10017000880F991FFC01EC5CFF4FA591B491FC0125
:10018000E25CFF4FC591D49161110DC09FB7F89407
:100190008C91209582238C938881282328839FBF6C
:1001A000DF91CF910895623051F49FB7F8943C915C
:1001B000822F809583238C93E8812E2BEFCF8FB7EE
:1001C000F894EC912E2B2C938FBFEACF9FB7F89425
:1001D00040910E0150910F01609110017091110139
:1001E00086B5A89B06C08F3F21F04F5F5F4F6F4FD2
:1001F0007F4F9FBF2227342F452F562F280F311DA9
:10020000411D511DA3E0B0E0BDD108958F929F9292
:10021000AF92BF92CF92DF92EF92FF924B015C01BF
:10022000D5DF6B017C01D2DF6C197D098E099F0936
:10023000683E734081059105B0F321E0821A910870
:10024000A108B10888EEC80E83E0D81EE11CF11C9D
:1002500081149104A104B10431F7FF90EF90DF9075
:10026000CF90BF90AF909F908F9008950F931F9362
:10027000CF93DF93EC0110E000E0C017D1079CF0B2
:1002800061E08EE01BDF6EE170E080E090E0BEDFB9
:1002900060E08EE013DF6AEF70E080E090E0B6DFB0
:1002A0000F5F1F4FEACF68EC70E080E090E0AEDFB8
:1002B000C830D10514F0D0E0C0E061E0C0FF60E0DC
:1002C00088E0FCDE61E0C1FF60E089E0F7DE61E02C
:1002D000C2FF60E08AE0F2DE90E080E03DD18C1762
:1002E0001D0621F06C2F90E080E03ED160E08BE0B5
:1002F000E5DE61E08BE02EDF62E370E080E090E01D
:1003000085DF61E08BE0DADE60E08BE0DF91CF91AA
:100310001F910F911FCF1F920F920FB60F921124B2
:100320002F933F938F939F93AF93BF9380910A0135
:1003300090910B01A0910C01B0910D013091090138
:1003400026E6230F2D3728F029EE230F0196A11D55
:10035000B11D2093090180930A0190930B01A09392
:100360000C01B0930D0180910E0190910F01A091AD
:100370001001B09111010196A11DB11D80930E01D4
:1003800090930F01A0931001B0931101BF91AF9111
:100390009F918F913F912F910F900FBE0F901F90C3
:1003A00018951F920F920FB60F9211248F9383B15D
:1003B00085FB882780F9809308018F910F900FBEED
:1003C0000F901F901895789484B5826084BD84B591
:1003D000816084BD85B5826085BD85B5816085BD40
:1003E00080916E00816080936E00109281008091F8
:1003F0008100826080938100809181008160809380
:100400008100809180008160809380008091B100A4
:1004100084608093B1008091B00081608093B000CF
:1004200080917A00846080937A0080917A00826063
:1004300080937A0080917A00816080937A00809125
:100440007A00806880937A001092C1001AB860E048
:100450008DE080DE61E088E07DDE61E089E07ADECB
:1004600061E08AE077DE60E08DE074DE60E08BE0E2
:1004700071DE61E08EE06EDE62E082E16BDE62E002
:1004800083E168DE90E080E067D090E088309105FD
:1004900064F0D0E0C0E060E0CE0166D02196C115E6
:1004A00081E0D807C1F790E080E0E0DE80916B004A
:1004B000806280936B00D89A8091680081608093FD
:1004C0006800C0E0D0E001E010E0809108018823DE
:1004D00091F129B1109208018091060190910701D4
:1004E000FC01E050FF4F308123131EC00196909312
:1004F000070180930601069799F4809108018823EB
:10050000E1F389B19FEC980F943020F48153990B5B
:10051000ADDE06C08D3451F410930701009306013F
:10052000209799F26DDDD1CF2D34B1F310920701F0
:1005300010920601F5CF86B184FD03C090E080E003
:10054000E7CF85FDEDCF90E080E006D090E001960A
:1005500088309105ECF2F2CFF999FECF12BC81BD43
:10056000F89A992780B50895262FF999FECF1FBADA
:1005700012BC81BD20BD0FB6F894FA9AF99A0FBE4D
:100580000196089509D0A59F900DB49F900DA49F4A
:10059000800D911D11240895A29FB001B39FC00149
:1005A000A39F01D0B29F700D811D1124911D08954C
:0405B000F894FFCFED
:0605B4004D4F524E524073
:00000001FF
